{
  "_format": "hh-sol-artifact-1",
  "contractName": "FundMe",
  "sourceName": "contracts/FundMe.sol",
  "abi": [
    {
      "inputs": [
        {
          "internalType": "address",
          "name": "_priceFeedAddress",
          "type": "address"
        }
      ],
      "stateMutability": "nonpayable",
      "type": "constructor"
    },
    {
      "inputs": [],
      "name": "FundMe__NotEnoughFunds",
      "type": "error"
    },
    {
      "inputs": [],
      "name": "FundMe__NotOwner",
      "type": "error"
    },
    {
      "inputs": [],
      "name": "MINIMUN_USD_AMOUNT",
      "outputs": [
        {
          "internalType": "uint256",
          "name": "",
          "type": "uint256"
        }
      ],
      "stateMutability": "view",
      "type": "function"
    },
    {
      "inputs": [
        {
          "internalType": "address",
          "name": "",
          "type": "address"
        }
      ],
      "name": "addressToAmountFunded",
      "outputs": [
        {
          "internalType": "uint256",
          "name": "",
          "type": "uint256"
        }
      ],
      "stateMutability": "view",
      "type": "function"
    },
    {
      "inputs": [],
      "name": "dataFeed",
      "outputs": [
        {
          "internalType": "contract AggregatorV3Interface",
          "name": "",
          "type": "address"
        }
      ],
      "stateMutability": "view",
      "type": "function"
    },
    {
      "inputs": [],
      "name": "fund",
      "outputs": [],
      "stateMutability": "payable",
      "type": "function"
    },
    {
      "inputs": [
        {
          "internalType": "uint256",
          "name": "",
          "type": "uint256"
        }
      ],
      "name": "funders",
      "outputs": [
        {
          "internalType": "address",
          "name": "",
          "type": "address"
        }
      ],
      "stateMutability": "view",
      "type": "function"
    },
    {
      "inputs": [],
      "name": "owner",
      "outputs": [
        {
          "internalType": "address",
          "name": "",
          "type": "address"
        }
      ],
      "stateMutability": "view",
      "type": "function"
    },
    {
      "inputs": [],
      "name": "withdraw",
      "outputs": [],
      "stateMutability": "nonpayable",
      "type": "function"
    }
  ],
  "bytecode": "0x6080604052601960005534801561001557600080fd5b50604051610d92380380610d9283398181016040528101906100379190610122565b33600360006101000a81548173ffffffffffffffffffffffffffffffffffffffff021916908373ffffffffffffffffffffffffffffffffffffffff16021790555080600460006101000a81548173ffffffffffffffffffffffffffffffffffffffff021916908373ffffffffffffffffffffffffffffffffffffffff1602179055505061014f565b600080fd5b600073ffffffffffffffffffffffffffffffffffffffff82169050919050565b60006100ef826100c4565b9050919050565b6100ff816100e4565b811461010a57600080fd5b50565b60008151905061011c816100f6565b92915050565b600060208284031215610138576101376100bf565b5b60006101468482850161010d565b91505092915050565b610c348061015e6000396000f3fe6080604052600436106100705760003560e01c80639e42ff901161004e5780639e42ff90146100f4578063b60d42881461011f578063dc0d3dff14610129578063ddb49f611461016657610070565b80633ccfd60b146100755780633e47d6f31461008c5780638da5cb5b146100c9575b600080fd5b34801561008157600080fd5b5061008a610191565b005b34801561009857600080fd5b506100b360048036038101906100ae9190610772565b6103ce565b6040516100c091906107b8565b60405180910390f35b3480156100d557600080fd5b506100de6103e6565b6040516100eb91906107e2565b60405180910390f35b34801561010057600080fd5b5061010961040c565b604051610116919061085c565b60405180910390f35b610127610432565b005b34801561013557600080fd5b50610150600480360381019061014b91906108a3565b61055d565b60405161015d91906107e2565b60405180910390f35b34801561017257600080fd5b5061017b61059c565b60405161018891906107b8565b60405180910390f35b600360009054906101000a900473ffffffffffffffffffffffffffffffffffffffff1673ffffffffffffffffffffffffffffffffffffffff163373ffffffffffffffffffffffffffffffffffffffff1614610218576040517f579610db00000000000000000000000000000000000000000000000000000000815260040160405180910390fd5b60005b6002805490508110156102be5760006002828154811061023e5761023d6108d0565b5b9060005260206000200160009054906101000a900473ffffffffffffffffffffffffffffffffffffffff1690506000600160008373ffffffffffffffffffffffffffffffffffffffff1673ffffffffffffffffffffffffffffffffffffffff1681526020019081526020016000208190555050808060010191505061021b565b50600067ffffffffffffffff8111156102da576102d96108ff565b5b6040519080825280602002602001820160405280156103085781602001602082028036833780820191505090505b506002908051906020019061031e929190610668565b5060003373ffffffffffffffffffffffffffffffffffffffff16476040516103459061095f565b60006040518083038185875af1925050503d8060008114610382576040519150601f19603f3d011682016040523d82523d6000602084013e610387565b606091505b50509050806103cb576040517f08c379a00000000000000000000000000000000000000000000000000000000081526004016103c2906109d1565b60405180910390fd5b50565b60016020528060005260406000206000915090505481565b600360009054906101000a900473ffffffffffffffffffffffffffffffffffffffff1681565b600460009054906101000a900473ffffffffffffffffffffffffffffffffffffffff1681565b60005461046a600460009054906101000a900473ffffffffffffffffffffffffffffffffffffffff16346105a290919063ffffffff16565b10156104a2576040517f964742c500000000000000000000000000000000000000000000000000000000815260040160405180910390fd5b34600160003373ffffffffffffffffffffffffffffffffffffffff1673ffffffffffffffffffffffffffffffffffffffff16815260200190815260200160002060008282546104f19190610a20565b925050819055506002339080600181540180825580915050600190039060005260206000200160009091909190916101000a81548173ffffffffffffffffffffffffffffffffffffffff021916908373ffffffffffffffffffffffffffffffffffffffff160217905550565b6002818154811061056d57600080fd5b906000526020600020016000915054906101000a900473ffffffffffffffffffffffffffffffffffffffff1681565b60005481565b600080670de0b6b3a76400006105b7846105e7565b856105c29190610a54565b6105cc9190610ac5565b90506305f5e100816105de9190610ac5565b91505092915050565b6000808273ffffffffffffffffffffffffffffffffffffffff1663feaf968c6040518163ffffffff1660e01b815260040160a060405180830381865afa158015610635573d6000803e3d6000fd5b505050506040513d601f19601f820116820180604052508101906106599190610b83565b50505091505080915050919050565b8280548282559060005260206000209081019282156106e1579160200282015b828111156106e05782518260006101000a81548173ffffffffffffffffffffffffffffffffffffffff021916908373ffffffffffffffffffffffffffffffffffffffff16021790555091602001919060010190610688565b5b5090506106ee91906106f2565b5090565b5b8082111561070b5760008160009055506001016106f3565b5090565b600080fd5b600073ffffffffffffffffffffffffffffffffffffffff82169050919050565b600061073f82610714565b9050919050565b61074f81610734565b811461075a57600080fd5b50565b60008135905061076c81610746565b92915050565b6000602082840312156107885761078761070f565b5b60006107968482850161075d565b91505092915050565b6000819050919050565b6107b28161079f565b82525050565b60006020820190506107cd60008301846107a9565b92915050565b6107dc81610734565b82525050565b60006020820190506107f760008301846107d3565b92915050565b6000819050919050565b600061082261081d61081884610714565b6107fd565b610714565b9050919050565b600061083482610807565b9050919050565b600061084682610829565b9050919050565b6108568161083b565b82525050565b6000602082019050610871600083018461084d565b92915050565b6108808161079f565b811461088b57600080fd5b50565b60008135905061089d81610877565b92915050565b6000602082840312156108b9576108b861070f565b5b60006108c78482850161088e565b91505092915050565b7f4e487b7100000000000000000000000000000000000000000000000000000000600052603260045260246000fd5b7f4e487b7100000000000000000000000000000000000000000000000000000000600052604160045260246000fd5b600081905092915050565b50565b600061094960008361092e565b915061095482610939565b600082019050919050565b600061096a8261093c565b9150819050919050565b600082825260208201905092915050565b7f43616c6c206661696c6564000000000000000000000000000000000000000000600082015250565b60006109bb600b83610974565b91506109c682610985565b602082019050919050565b600060208201905081810360008301526109ea816109ae565b9050919050565b7f4e487b7100000000000000000000000000000000000000000000000000000000600052601160045260246000fd5b6000610a2b8261079f565b9150610a368361079f565b9250828201905080821115610a4e57610a4d6109f1565b5b92915050565b6000610a5f8261079f565b9150610a6a8361079f565b9250828202610a788161079f565b91508282048414831517610a8f57610a8e6109f1565b5b5092915050565b7f4e487b7100000000000000000000000000000000000000000000000000000000600052601260045260246000fd5b6000610ad08261079f565b9150610adb8361079f565b925082610aeb57610aea610a96565b5b828204905092915050565b600069ffffffffffffffffffff82169050919050565b610b1581610af6565b8114610b2057600080fd5b50565b600081519050610b3281610b0c565b92915050565b6000819050919050565b610b4b81610b38565b8114610b5657600080fd5b50565b600081519050610b6881610b42565b92915050565b600081519050610b7d81610877565b92915050565b600080600080600060a08688031215610b9f57610b9e61070f565b5b6000610bad88828901610b23565b9550506020610bbe88828901610b59565b9450506040610bcf88828901610b6e565b9350506060610be088828901610b6e565b9250506080610bf188828901610b23565b915050929550929590935056fea26469706673582212200a1e2cc034d04c06c47cab4d7a8f2f14652127c843b6054b15ee816d3b29ab1764736f6c63430008180033",
  "linkReferences": {},
  "deployedLinkReferences": {}
}