{
  "_format": "hh-sol-artifact-1",
  "contractName": "Greeter",
  "sourceName": "contracts/Greeter.sol",
  "abi": [
    {
      "inputs": [
        {
          "internalType": "string",
          "name": "_greeting",
          "type": "string"
        }
      ],
      "stateMutability": "nonpayable",
      "type": "constructor"
    },
    {
      "inputs": [],
      "name": "greet",
      "outputs": [
        {
          "internalType": "string",
          "name": "",
          "type": "string"
        }
      ],
      "stateMutability": "view",
      "type": "function"
    },
    {
      "inputs": [
        {
          "internalType": "string",
          "name": "_greeting",
          "type": "string"
        }
      ],
      "name": "setGreeting",
      "outputs": [],
      "stateMutability": "nonpayable",
      "type": "function"
    }
  ],
  "bytecode": "0x60806040523480156200001157600080fd5b506040516200103f3803806200103f83398181016040528101906200003791906200033a565b6200007e6040518060400160405280601f81526020017f436f6e747261637420436f6e7374727563746f72205f6772656574696e673a00815250826200009760201b60201c565b80600090816200008f9190620005d6565b505062000779565b620001398282604051602401620000b09291906200070f565b6040516020818303038152906040527f4b5c4277000000000000000000000000000000000000000000000000000000007bffffffffffffffffffffffffffffffffffffffffffffffffffffffff19166020820180517bffffffffffffffffffffffffffffffffffffffffffffffffffffffff83818316178352505050506200013d60201b60201c565b5050565b62000163816200015e6200016660201b620001c7176200018760201b60201c565b60201c565b50565b60006a636f6e736f6c652e6c6f679050600080835160208501845afa505050565b6200019b60201b620002ac17819050919050565b620001a56200074a565b565b6000604051905090565b600080fd5b600080fd5b600080fd5b600080fd5b6000601f19601f8301169050919050565b7f4e487b7100000000000000000000000000000000000000000000000000000000600052604160045260246000fd5b6200021082620001c5565b810181811067ffffffffffffffff82111715620002325762000231620001d6565b5b80604052505050565b600062000247620001a7565b905062000255828262000205565b919050565b600067ffffffffffffffff821115620002785762000277620001d6565b5b6200028382620001c5565b9050602081019050919050565b60005b83811015620002b057808201518184015260208101905062000293565b60008484015250505050565b6000620002d3620002cd846200025a565b6200023b565b905082815260208101848484011115620002f257620002f1620001c0565b5b620002ff84828562000290565b509392505050565b600082601f8301126200031f576200031e620001bb565b5b815162000331848260208601620002bc565b91505092915050565b600060208284031215620003535762000352620001b1565b5b600082015167ffffffffffffffff811115620003745762000373620001b6565b5b620003828482850162000307565b91505092915050565b600081519050919050565b7f4e487b7100000000000000000000000000000000000000000000000000000000600052602260045260246000fd5b60006002820490506001821680620003de57607f821691505b602082108103620003f457620003f362000396565b5b50919050565b60008190508160005260206000209050919050565b60006020601f8301049050919050565b600082821b905092915050565b6000600883026200045e7fffffffffffffffffffffffffffffffffffffffffffffffffffffffffffffffff826200041f565b6200046a86836200041f565b95508019841693508086168417925050509392505050565b6000819050919050565b6000819050919050565b6000620004b7620004b1620004ab8462000482565b6200048c565b62000482565b9050919050565b6000819050919050565b620004d38362000496565b620004eb620004e282620004be565b8484546200042c565b825550505050565b600090565b62000502620004f3565b6200050f818484620004c8565b505050565b5b8181101562000537576200052b600082620004f8565b60018101905062000515565b5050565b601f82111562000586576200055081620003fa565b6200055b846200040f565b810160208510156200056b578190505b620005836200057a856200040f565b83018262000514565b50505b505050565b600082821c905092915050565b6000620005ab600019846008026200058b565b1980831691505092915050565b6000620005c6838362000598565b9150826002028217905092915050565b620005e1826200038b565b67ffffffffffffffff811115620005fd57620005fc620001d6565b5b620006098254620003c5565b620006168282856200053b565b600060209050601f8311600181146200064e576000841562000639578287015190505b620006458582620005b8565b865550620006b5565b601f1984166200065e86620003fa565b60005b82811015620006885784890151825560018201915060208501945060208101905062000661565b86831015620006a85784890151620006a4601f89168262000598565b8355505b6001600288020188555050505b505050505050565b600082825260208201905092915050565b6000620006db826200038b565b620006e78185620006bd565b9350620006f981856020860162000290565b6200070481620001c5565b840191505092915050565b600060408201905081810360008301526200072b8185620006ce565b90508181036020830152620007418184620006ce565b90509392505050565b7f4e487b7100000000000000000000000000000000000000000000000000000000600052605160045260246000fd5b6108b680620007896000396000f3fe608060405234801561001057600080fd5b50600436106100365760003560e01c8063a41368621461003b578063cfae321714610057575b600080fd5b61005560048036038101906100509190610410565b610075565b005b61005f610135565b60405161006c91906104d8565b60405180910390f35b61012260405180606001604052806023815260200161085e602391396000805461009e90610529565b80601f01602080910402602001604051908101604052809291908181526020018280546100ca90610529565b80156101175780601f106100ec57610100808354040283529160200191610117565b820191906000526020600020905b8154815290600101906020018083116100fa57829003601f168201915b5050505050836101e8565b80600090816101319190610710565b5050565b60606000805461014490610529565b80601f016020809104026020016040519081016040528092919081815260200182805461017090610529565b80156101bd5780601f10610192576101008083540402835291602001916101bd565b820191906000526020600020905b8154815290600101906020018083116101a057829003601f168201915b5050505050905090565b60006a636f6e736f6c652e6c6f679050600080835160208501845afa505050565b610282838383604051602401610200939291906107e2565b6040516020818303038152906040527f2ced7cef000000000000000000000000000000000000000000000000000000007bffffffffffffffffffffffffffffffffffffffffffffffffffffffff19166020820180517bffffffffffffffffffffffffffffffffffffffffffffffffffffffff8381831617835250505050610287565b505050565b61029e816102966101c76102a1565b63ffffffff16565b50565b6102ac819050919050565b6102b461082e565b565b6000604051905090565b600080fd5b600080fd5b600080fd5b600080fd5b6000601f19601f8301169050919050565b7f4e487b7100000000000000000000000000000000000000000000000000000000600052604160045260246000fd5b61031d826102d4565b810181811067ffffffffffffffff8211171561033c5761033b6102e5565b5b80604052505050565b600061034f6102b6565b905061035b8282610314565b919050565b600067ffffffffffffffff82111561037b5761037a6102e5565b5b610384826102d4565b9050602081019050919050565b82818337600083830152505050565b60006103b36103ae84610360565b610345565b9050828152602081018484840111156103cf576103ce6102cf565b5b6103da848285610391565b509392505050565b600082601f8301126103f7576103f66102ca565b5b81356104078482602086016103a0565b91505092915050565b600060208284031215610426576104256102c0565b5b600082013567ffffffffffffffff811115610444576104436102c5565b5b610450848285016103e2565b91505092915050565b600081519050919050565b600082825260208201905092915050565b60005b83811015610493578082015181840152602081019050610478565b60008484015250505050565b60006104aa82610459565b6104b48185610464565b93506104c4818560208601610475565b6104cd816102d4565b840191505092915050565b600060208201905081810360008301526104f2818461049f565b905092915050565b7f4e487b7100000000000000000000000000000000000000000000000000000000600052602260045260246000fd5b6000600282049050600182168061054157607f821691505b602082108103610554576105536104fa565b5b50919050565b60008190508160005260206000209050919050565b60006020601f8301049050919050565b600082821b905092915050565b6000600883026105bc7fffffffffffffffffffffffffffffffffffffffffffffffffffffffffffffffff8261057f565b6105c6868361057f565b95508019841693508086168417925050509392505050565b6000819050919050565b6000819050919050565b600061060d610608610603846105de565b6105e8565b6105de565b9050919050565b6000819050919050565b610627836105f2565b61063b61063382610614565b84845461058c565b825550505050565b600090565b610650610643565b61065b81848461061e565b505050565b5b8181101561067f57610674600082610648565b600181019050610661565b5050565b601f8211156106c4576106958161055a565b61069e8461056f565b810160208510156106ad578190505b6106c16106b98561056f565b830182610660565b50505b505050565b600082821c905092915050565b60006106e7600019846008026106c9565b1980831691505092915050565b600061070083836106d6565b9150826002028217905092915050565b61071982610459565b67ffffffffffffffff811115610732576107316102e5565b5b61073c8254610529565b610747828285610683565b600060209050601f83116001811461077a5760008415610768578287015190505b61077285826106f4565b8655506107da565b601f1984166107888661055a565b60005b828110156107b05784890151825560018201915060208501945060208101905061078b565b868310156107cd57848901516107c9601f8916826106d6565b8355505b6001600288020188555050505b505050505050565b600060608201905081810360008301526107fc818661049f565b90508181036020830152610810818561049f565b90508181036040830152610824818461049f565b9050949350505050565b7f4e487b7100000000000000000000000000000000000000000000000000000000600052605160045260246000fdfe4368616e67696e67206772656574696e672066726f6d202725732720746f2027257327a26469706673582212202e36687bcdbe06fd188603a14015f543159c9287d148a48e609e96bc768d0f9764736f6c63430008180033",
  "linkReferences": {},
  "deployedLinkReferences": {}
}